{
  "_format": "hh-sol-artifact-1",
  "contractName": "DigitalLibrary",
  "sourceName": "contracts/DigitalLibrary.sol",
  "abi": [
    {
      "inputs": [
        {
          "internalType": "address",
          "name": "_treasuryWallet",
          "type": "address"
        }
      ],
      "stateMutability": "nonpayable",
      "type": "constructor"
    },
    {
      "inputs": [
        {
          "internalType": "address",
          "name": "owner",
          "type": "address"
        }
      ],
      "name": "OwnableInvalidOwner",
      "type": "error"
    },
    {
      "inputs": [
        {
          "internalType": "address",
          "name": "account",
          "type": "address"
        }
      ],
      "name": "OwnableUnauthorizedAccount",
      "type": "error"
    },
    {
      "anonymous": false,
      "inputs": [
        {
          "indexed": false,
          "internalType": "string",
          "name": "orderId",
          "type": "string"
        },
        {
          "indexed": false,
          "internalType": "uint256",
          "name": "amount",
          "type": "uint256"
        }
      ],
      "name": "OrderPaid",
      "type": "event"
    },
    {
      "anonymous": false,
      "inputs": [
        {
          "indexed": true,
          "internalType": "address",
          "name": "previousOwner",
          "type": "address"
        },
        {
          "indexed": true,
          "internalType": "address",
          "name": "newOwner",
          "type": "address"
        }
      ],
      "name": "OwnershipTransferred",
      "type": "event"
    },
    {
      "anonymous": false,
      "inputs": [
        {
          "indexed": true,
          "internalType": "address",
          "name": "newTreasuryWallet",
          "type": "address"
        }
      ],
      "name": "TreasuryWalletUpdated",
      "type": "event"
    },
    {
      "stateMutability": "payable",
      "type": "fallback"
    },
    {
      "inputs": [],
      "name": "owner",
      "outputs": [
        {
          "internalType": "address",
          "name": "",
          "type": "address"
        }
      ],
      "stateMutability": "view",
      "type": "function"
    },
    {
      "inputs": [
        {
          "internalType": "string",
          "name": "orderId",
          "type": "string"
        }
      ],
      "name": "payOrder",
      "outputs": [],
      "stateMutability": "payable",
      "type": "function"
    },
    {
      "inputs": [],
      "name": "renounceOwnership",
      "outputs": [],
      "stateMutability": "nonpayable",
      "type": "function"
    },
    {
      "inputs": [
        {
          "internalType": "address",
          "name": "newTreasuryWallet",
          "type": "address"
        }
      ],
      "name": "setTreasuryWallet",
      "outputs": [],
      "stateMutability": "nonpayable",
      "type": "function"
    },
    {
      "inputs": [
        {
          "internalType": "address",
          "name": "newOwner",
          "type": "address"
        }
      ],
      "name": "transferOwnership",
      "outputs": [],
      "stateMutability": "nonpayable",
      "type": "function"
    },
    {
      "inputs": [],
      "name": "treasuryWallet",
      "outputs": [
        {
          "internalType": "address",
          "name": "",
          "type": "address"
        }
      ],
      "stateMutability": "view",
      "type": "function"
    },
    {
      "inputs": [
        {
          "internalType": "address",
          "name": "tokenAddress",
          "type": "address"
        },
        {
          "internalType": "uint256",
          "name": "amount",
          "type": "uint256"
        }
      ],
      "name": "withdraw",
      "outputs": [],
      "stateMutability": "nonpayable",
      "type": "function"
    },
    {
      "stateMutability": "payable",
      "type": "receive"
    }
  ],
  "bytecode": "0x60806040523480156200001157600080fd5b5060405162001440380380620014408339818101604052810190620000379190620002a7565b33600073ffffffffffffffffffffffffffffffffffffffff168173ffffffffffffffffffffffffffffffffffffffff1603620000ad5760006040517f1e4fbdf7000000000000000000000000000000000000000000000000000000008152600401620000a49190620002ea565b60405180910390fd5b620000be816200017960201b60201c565b50600073ffffffffffffffffffffffffffffffffffffffff168173ffffffffffffffffffffffffffffffffffffffff160362000131576040517f08c379a000000000000000000000000000000000000000000000000000000000815260040162000128906200038e565b60405180910390fd5b80600160006101000a81548173ffffffffffffffffffffffffffffffffffffffff021916908373ffffffffffffffffffffffffffffffffffffffff16021790555050620003b0565b60008060009054906101000a900473ffffffffffffffffffffffffffffffffffffffff169050816000806101000a81548173ffffffffffffffffffffffffffffffffffffffff021916908373ffffffffffffffffffffffffffffffffffffffff1602179055508173ffffffffffffffffffffffffffffffffffffffff168173ffffffffffffffffffffffffffffffffffffffff167f8be0079c531659141344cd1fd0a4f28419497f9722a3daafe3b4186f6b6457e060405160405180910390a35050565b600080fd5b600073ffffffffffffffffffffffffffffffffffffffff82169050919050565b60006200026f8262000242565b9050919050565b620002818162000262565b81146200028d57600080fd5b50565b600081519050620002a18162000276565b92915050565b600060208284031215620002c057620002bf6200023d565b5b6000620002d08482850162000290565b91505092915050565b620002e48162000262565b82525050565b6000602082019050620003016000830184620002d9565b92915050565b600082825260208201905092915050565b7f54726561737572792077616c6c65742063616e6e6f7420626520746865207a6560008201527f726f206164647265737300000000000000000000000000000000000000000000602082015250565b600062000376602a8362000307565b9150620003838262000318565b604082019050919050565b60006020820190508181036000830152620003a98162000367565b9050919050565b61108080620003c06000396000f3fe6080604052600436106100745760003560e01c8063966a7dca1161004e578063966a7dca146100ea578063a8602fea14610106578063f2fde38b1461012f578063f3fef3a3146101585761007b565b80634626402b1461007d578063715018a6146100a85780638da5cb5b146100bf5761007b565b3661007b57005b005b34801561008957600080fd5b50610092610181565b60405161009f91906109cf565b60405180910390f35b3480156100b457600080fd5b506100bd6101a7565b005b3480156100cb57600080fd5b506100d46101bb565b6040516100e191906109cf565b60405180910390f35b61010460048036038101906100ff9190610b44565b6101e4565b005b34801561011257600080fd5b5061012d60048036038101906101289190610bb9565b610314565b005b34801561013b57600080fd5b5061015660048036038101906101519190610bb9565b610412565b005b34801561016457600080fd5b5061017f600480360381019061017a9190610c1c565b610498565b005b600160009054906101000a900473ffffffffffffffffffffffffffffffffffffffff1681565b6101af6105f6565b6101b9600061067d565b565b60008060009054906101000a900473ffffffffffffffffffffffffffffffffffffffff16905090565b6101ed81610741565b61022c576040517f08c379a000000000000000000000000000000000000000000000000000000000815260040161022390610cdf565b60405180910390fd5b6000341161026f576040517f08c379a000000000000000000000000000000000000000000000000000000000815260040161026690610d4b565b60405180910390fd5b600160009054906101000a900473ffffffffffffffffffffffffffffffffffffffff1673ffffffffffffffffffffffffffffffffffffffff166108fc349081150290604051600060405180830381858888f193505050501580156102d7573d6000803e3d6000fd5b507fc4ddd80372ae4813b50367772a24276763d589d7a8f86a25bc048034b25872348134604051610309929190610de8565b60405180910390a150565b61031c6105f6565b600073ffffffffffffffffffffffffffffffffffffffff168173ffffffffffffffffffffffffffffffffffffffff160361038b576040517f08c379a000000000000000000000000000000000000000000000000000000000815260040161038290610e8a565b60405180910390fd5b80600160006101000a81548173ffffffffffffffffffffffffffffffffffffffff021916908373ffffffffffffffffffffffffffffffffffffffff1602179055508073ffffffffffffffffffffffffffffffffffffffff167f97c79b3848e51f57983ac89e4403452655c8d83ceba8199011de63a74f60d1a760405160405180910390a250565b61041a6105f6565b600073ffffffffffffffffffffffffffffffffffffffff168173ffffffffffffffffffffffffffffffffffffffff160361048c5760006040517f1e4fbdf700000000000000000000000000000000000000000000000000000000815260040161048391906109cf565b60405180910390fd5b6104958161067d565b50565b6104a06105f6565b600073ffffffffffffffffffffffffffffffffffffffff168273ffffffffffffffffffffffffffffffffffffffff1603610527576104dc6101bb565b73ffffffffffffffffffffffffffffffffffffffff166108fc829081150290604051600060405180830381858888f19350505050158015610521573d6000803e3d6000fd5b506105f2565b60008290508073ffffffffffffffffffffffffffffffffffffffff1663a9059cbb6105506101bb565b846040518363ffffffff1660e01b815260040161056e929190610eaa565b6020604051808303816000875af115801561058d573d6000803e3d6000fd5b505050506040513d601f19601f820116820180604052508101906105b19190610f0b565b6105f0576040517f08c379a00000000000000000000000000000000000000000000000000000000081526004016105e790610f84565b60405180910390fd5b505b5050565b6105fe61085b565b73ffffffffffffffffffffffffffffffffffffffff1661061c6101bb565b73ffffffffffffffffffffffffffffffffffffffff161461067b5761063f61085b565b6040517f118cdaa700000000000000000000000000000000000000000000000000000000815260040161067291906109cf565b60405180910390fd5b565b60008060009054906101000a900473ffffffffffffffffffffffffffffffffffffffff169050816000806101000a81548173ffffffffffffffffffffffffffffffffffffffff021916908373ffffffffffffffffffffffffffffffffffffffff1602179055508173ffffffffffffffffffffffffffffffffffffffff168173ffffffffffffffffffffffffffffffffffffffff167f8be0079c531659141344cd1fd0a4f28419497f9722a3daafe3b4186f6b6457e060405160405180910390a35050565b600080829050602481511461075a576000915050610856565b60005b602481101561084f5760088114806107755750600d81145b806107805750601281145b8061078b5750601781145b15610806577f2d000000000000000000000000000000000000000000000000000000000000008282815181106107c4576107c3610fa4565b5b602001015160f81c60f81b7effffffffffffffffffffffffffffffffffffffffffffffffffffffffffffff19161461080157600092505050610856565b61083c565b61082c82828151811061081c5761081b610fa4565b5b602001015160f81c60f81b610863565b61083b57600092505050610856565b5b808061084790611002565b91505061075d565b5060019150505b919050565b600033905090565b6000603060f81b827effffffffffffffffffffffffffffffffffffffffffffffffffffffffffffff1916101580156108c15750603960f81b827effffffffffffffffffffffffffffffffffffffffffffffffffffffffffffff191611155b806109245750606160f81b827effffffffffffffffffffffffffffffffffffffffffffffffffffffffffffff1916101580156109235750606660f81b827effffffffffffffffffffffffffffffffffffffffffffffffffffffffffffff191611155b5b806109875750604160f81b827effffffffffffffffffffffffffffffffffffffffffffffffffffffffffffff1916101580156109865750604660f81b827effffffffffffffffffffffffffffffffffffffffffffffffffffffffffffff191611155b5b9050919050565b600073ffffffffffffffffffffffffffffffffffffffff82169050919050565b60006109b98261098e565b9050919050565b6109c9816109ae565b82525050565b60006020820190506109e460008301846109c0565b92915050565b6000604051905090565b600080fd5b600080fd5b600080fd5b600080fd5b6000601f19601f8301169050919050565b7f4e487b7100000000000000000000000000000000000000000000000000000000600052604160045260246000fd5b610a5182610a08565b810181811067ffffffffffffffff82111715610a7057610a6f610a19565b5b80604052505050565b6000610a836109ea565b9050610a8f8282610a48565b919050565b600067ffffffffffffffff821115610aaf57610aae610a19565b5b610ab882610a08565b9050602081019050919050565b82818337600083830152505050565b6000610ae7610ae284610a94565b610a79565b905082815260208101848484011115610b0357610b02610a03565b5b610b0e848285610ac5565b509392505050565b600082601f830112610b2b57610b2a6109fe565b5b8135610b3b848260208601610ad4565b91505092915050565b600060208284031215610b5a57610b596109f4565b5b600082013567ffffffffffffffff811115610b7857610b776109f9565b5b610b8484828501610b16565b91505092915050565b610b96816109ae565b8114610ba157600080fd5b50565b600081359050610bb381610b8d565b92915050565b600060208284031215610bcf57610bce6109f4565b5b6000610bdd84828501610ba4565b91505092915050565b6000819050919050565b610bf981610be6565b8114610c0457600080fd5b50565b600081359050610c1681610bf0565b92915050565b60008060408385031215610c3357610c326109f4565b5b6000610c4185828601610ba4565b9250506020610c5285828601610c07565b9150509250929050565b600082825260208201905092915050565b7f6f726465724964206d75737420626520612076616c696420555549442076342060008201527f737472696e670000000000000000000000000000000000000000000000000000602082015250565b6000610cc9602683610c5c565b9150610cd482610c6d565b604082019050919050565b60006020820190508181036000830152610cf881610cbc565b9050919050565b7f4554482076616c75652063616e6e6f74206265207a65726f0000000000000000600082015250565b6000610d35601883610c5c565b9150610d4082610cff565b602082019050919050565b60006020820190508181036000830152610d6481610d28565b9050919050565b600081519050919050565b60005b83811015610d94578082015181840152602081019050610d79565b60008484015250505050565b6000610dab82610d6b565b610db58185610c5c565b9350610dc5818560208601610d76565b610dce81610a08565b840191505092915050565b610de281610be6565b82525050565b60006040820190508181036000830152610e028185610da0565b9050610e116020830184610dd9565b9392505050565b7f54726561737572792077616c6c65742063616e6e6f7420626520746865207a6560008201527f726f206164647265737300000000000000000000000000000000000000000000602082015250565b6000610e74602a83610c5c565b9150610e7f82610e18565b604082019050919050565b60006020820190508181036000830152610ea381610e67565b9050919050565b6000604082019050610ebf60008301856109c0565b610ecc6020830184610dd9565b9392505050565b60008115159050919050565b610ee881610ed3565b8114610ef357600080fd5b50565b600081519050610f0581610edf565b92915050565b600060208284031215610f2157610f206109f4565b5b6000610f2f84828501610ef6565b91505092915050565b7f546f6b656e207472616e73666572206661696c65640000000000000000000000600082015250565b6000610f6e601583610c5c565b9150610f7982610f38565b602082019050919050565b60006020820190508181036000830152610f9d81610f61565b9050919050565b7f4e487b7100000000000000000000000000000000000000000000000000000000600052603260045260246000fd5b7f4e487b7100000000000000000000000000000000000000000000000000000000600052601160045260246000fd5b600061100d82610be6565b91507fffffffffffffffffffffffffffffffffffffffffffffffffffffffffffffffff820361103f5761103e610fd3565b5b60018201905091905056fea26469706673582212203dd6f5c318f55bec679bd6c56c08ffd9bbbb5ab7beec906ad3bf9986cfb9674b64736f6c63430008140033",
  "linkReferences": {},
  "deployedLinkReferences": {}
}